:100000000C942A000C9466000C9482000C949E00C0
:100010000C94D8000C94D8000C94D8000C94D80000
:100020000C94D8000C94D8000C94D8000C94D800F0
:100030000C94D8000C94D8000C94D8000C94D800E0
:100040000C94D8000C94D8000C94D8000C94D800D0
:100050000C94D80011241FBECFE5D8E0DEBFCDBF81
:0C0060000E9436000C94CD00F894FFCFF5
:10006C000E94BA00789485B796B7816096BF85BF19
:10007C0085B796B7846096BF85BF85B796B78860FD
:10008C0096BF85BF84B795B78F7B95BF84BF8BB761
:10009C009CB780649CBF8BBF8BB79CB780689CBFA0
:1000AC008BBF8BB79CB780629CBF8BBF82B38F7D9D
:1000BC0082BB82B38F7B82BB82B38F7782BBF6CF3E
:1000CC001F920F920FB60F9211242F938F939F9321
:1000DC0082B3806282BB2FE38DE093E0215080409D
:1000EC009040E1F700C000009F918F912F910F90ED
:0800FC000FBE0F901F90189534
:100104001F920F920FB60F9211242F938F939F93E8
:1001140082B3806482BB2FE38DE093E02150804062
:100124009040E1F700C000009F918F912F910F90B4
:080134000FBE0F901F901895FB
:10013C001F920F920FB60F9211242F938F939F93B0
:10014C0082B3806882BB2FE38DE093E02150804026
:10015C009040E1F700C000009F918F912F910F907C
:08016C000FBE0F901F901895C3
:1001740081B3806281BB81B3806481BB81B38068B9
:1001840081BB81B38B7F81BB81B3877F81BB87B305
:060194008B7F87BB08957C
:10019A00EC010E94DD000E94DC00CE010E94DE001C
:0601AA00CE010E94DA0004
:0401B0000C940000AB
:0401B4000E94340071
:0201B8000895A8
:0201BA000895A6
:0201BC000895A4
:00000001FF
