S01A00006C6170325F6C6573736F6E345F756E6974362E737265631F
S31508000000002800204502000895020008950200080D
S3150800001095020008950200089502000800000000F5
S315080000200000000000000000000000009502000823
S3150800003095020008000000009502000895020008D5
S315080000409502000895020008950200089502000826
S315080000509502000895020008190200089502000892
S315080000609502000895020008950200089502000806
S3150800007095020008950200089502000895020008F6
S3150800008095020008950200089502000895020008E6
S3150800009095020008950200089502000895020008D6
S315080000A095020008950200089502000895020008C6
S315080000B095020008950200089502000895020008B6
S315080000C095020008950200089502000895020008A6
S315080000D09502000895020008950200089502000896
S315080000E09502000895020008000000009502000825
S315080000F09502000895020008950200089502000876
S315080001009502000895020008950200089502000865
S315080001109502000895020008950200089502000855
S315080001209502000895020008950200089502000845
S3150800013010B5054C237833B9044B13B10448AFF313
S3150800014000800123237010BD00000020000000007D
S31508000150E002000808B5034B1BB103490348AFF397
S31508000160008008BD0000000004000020E00200082E
S3150800017080B400AF0A4B1B68094A23F47003136066
S31508000180074B1B68064A43F400131360054B1B68AC
S31508000190044A43F00403136000BFBD4680BC7047A1
S315080001A0040801400008014080B400AF074B1B68F3
S315080001B0064A43F004031360044B1B68034A43F0E2
S315080001C00103136000BFBD4680BC7047181002408B
S315080001D080B500AFFFF7E8FFFFF7CAFF0A4B00221A
S315080001E01A600A4B1B68094A43F001031360084B5F
S315080001F01B68074A43F001031360064B1B68054A50
S3150800020043F040031360FEE708000140080401407C
S315080002100004014000E100E080B400AF074B1B6812
S31508000220064A83F400531360054B1B68044A43F0DF
S315080002300103136000BFBD4680BC70470C0801402F
S31508000240140401400D488546AFF300800C480D495B
S315080002500D4A002302E0D458C4500433C4188C4213
S31508000260F9D30A4A0A4C002301E013600432A24279
S31508000270FBD300F011F8FFF7ABFFFEE700280020DC
S3150800028000000020000000200003000800000020F5
S315080002901C000020FEE7000070B500250C4E0D4C32
S315080002A0A41BA410A54209D100F01AF800250A4E8D
S315080002B00A4CA41BA410A54205D170BD56F82530DA
S315080002C098470135EEE756F8253098470135F2E7A5
S315080002D0F8020008F8020008F8020008FC02000804
S315080002E0F8B500BFF8BC08BC9E467047F8B500BF15
S30D080002F0F8BC08BC9E467047E5
S309080002F85501000896
S309080002FC31010008B6
S70508000245AB
