:020000040800F2
:1000000000280020B10200080103000801030008D5
:1000100001030008010300080103000800000000BC
:1000200000000000000000000000000001030008C4
:10003000010300080000000001030008010300089C
:100040000103000801030008010300080103000880
:100050000103000801030008010300080103000870
:100060000103000801030008010300080103000860
:100070000103000801030008010300080103000850
:100080000103000801030008010300080103000840
:100090000103000801030008010300080103000830
:1000A0000103000801030008010300080103000820
:1000B0000103000801030008010300080103000810
:1000C0000103000801030008010300080103000800
:1000D00001030008010300080103000801030008F0
:1000E00001030008010300080000000001030008EC
:1000F00001030008010300080103000801030008D0
:1001000001030008010300080103000801030008BF
:1001100001030008010300080103000801030008AF
:10012000010300080103000801030008010300089F
:1001300010B5054C237833B9044B13B10448AFF321
:1001400000800123237010BD00000020000000008B
:100150004C03000808B5034B1BB103490348AFF338
:10016000008008BD00000000040000204C030008CF
:1001700080B400AF1B4B00221A601B4B00221A6098
:100180001A4B00221A601A4B00221A60154B154AAE
:100190001B681360134B1B68124A43F04003136043
:1001A000114B1B68104A43F0100313600E4B0E4AAC
:1001B0001B6813600D4B0D4A1B6813600B4B1B68CB
:1001C0000A4A43F480031360094B1B68084A43F44E
:1001D00080131360064B064A1B68136000BFBD46C0
:1001E00080BC704700080140000C01400408014039
:1001F000040C014080B400AF074B1B68064A43F073
:1002000004031360044B1B68034A43F008031360A4
:1002100000BFBD4680BC70471810024080B485B056
:1002200000AF78600023FB600BE00023BB6002E0BE
:10023000BB680133BB60BB68FE2BF9D9FB68013397
:10024000FB607B68FA689A42EFD300BF1437BD4663
:1002500080BC704780B500AFFFF7CCFFFFF788FF89
:10026000114B1B6803F00203002B0CD10F4B1B68D2
:100270000E4A83F00203136000BF0B4B1B6803F0B0
:100280000203002BF9D0084B1B685B0B03F0010342
:10029000012B05D1054B1B68044A83F400531360FE
:1002A0000120FFF7BBFFDBE7080801400C0C014011
:1002B0000D488546AFF300800C480D490D4A0023D8
:1002C00002E0D458C4500433C4188C42F9D30A4A0B
:1002D0000A4C002301E013600432A242FBD300F079
:1002E00011F8FFF7B7FFFEE700280020000000200C
:1002F000000000206C030008000000201C0000200B
:10030000FEE7000070B500250C4E0D4CA41BA41098
:10031000A54209D100F01AF800250A4E0A4CA41B88
:10032000A410A54205D170BD56F825309847013577
:10033000EEE756F8253098470135F2E764030008E8
:10034000640300086403000868030008F8B500BFF0
:10035000F8BC08BC9E467047F8B500BFF8BC08BCA6
:040360009E467047FE
:040364005501000837
:040368003101000857
:04000005080002B13C
:00000001FF
